{
  "abi": [
    {
      "inputs": [
        {
          "internalType": "address",
          "name": "deployer_",
          "type": "address"
        },
        {
          "internalType": "address",
          "name": "_axiomV2QueryAddress",
          "type": "address"
        }
      ],
      "stateMutability": "nonpayable",
      "type": "constructor"
    },
    {
      "inputs": [
        {
          "internalType": "address",
          "name": "sender",
          "type": "address"
        },
        {
          "internalType": "uint256",
          "name": "bundleSize",
          "type": "uint256"
        },
        {
          "internalType": "uint256",
          "name": "bundleIndex",
          "type": "uint256"
        }
      ],
      "name": "BundleVerificationFailed",
      "type": "error"
    },
    {
      "inputs": [
        {
          "internalType": "address",
          "name": "caller",
          "type": "address"
        },
        {
          "internalType": "address",
          "name": "blockBuilderAddress",
          "type": "address"
        }
      ],
      "name": "ChallengeFailed",
      "type": "error"
    },
    {
      "inputs": [
        {
          "internalType": "address",
          "name": "sender",
          "type": "address"
        }
      ],
      "name": "InvalidBlockBuilder",
      "type": "error"
    },
    {
      "inputs": [
        {
          "internalType": "uint256",
          "name": "size",
          "type": "uint256"
        },
        {
          "internalType": "uint256",
          "name": "actualSize",
          "type": "uint256"
        }
      ],
      "name": "InvalidBundleSize",
      "type": "error"
    },
    {
      "inputs": [
        {
          "internalType": "address",
          "name": "sender",
          "type": "address"
        }
      ],
      "name": "InvalidContractDeployer",
      "type": "error"
    },
    {
      "anonymous": false,
      "inputs": [
        {
          "indexed": true,
          "internalType": "uint64",
          "name": "sourceChainId",
          "type": "uint64"
        },
        {
          "indexed": false,
          "internalType": "address",
          "name": "callerAddr",
          "type": "address"
        },
        {
          "indexed": true,
          "internalType": "bytes32",
          "name": "querySchema",
          "type": "bytes32"
        },
        {
          "indexed": true,
          "internalType": "bytes32",
          "name": "queryHash",
          "type": "bytes32"
        }
      ],
      "name": "AxiomV2Call",
      "type": "event"
    },
    {
      "anonymous": false,
      "inputs": [
        {
          "indexed": false,
          "internalType": "address",
          "name": "caller",
          "type": "address"
        },
        {
          "indexed": false,
          "internalType": "uint256",
          "name": "amount",
          "type": "uint256"
        },
        {
          "indexed": false,
          "internalType": "address",
          "name": "blockBuilderAddress",
          "type": "address"
        }
      ],
      "name": "ChallengeSuccess",
      "type": "event"
    },
    {
      "inputs": [
        {
          "internalType": "address",
          "name": "blockBuilderAddress",
          "type": "address"
        }
      ],
      "name": "addBlockBuilder",
      "outputs": [],
      "stateMutability": "nonpayable",
      "type": "function"
    },
    {
      "inputs": [
        {
          "internalType": "uint64",
          "name": "sourceChainId",
          "type": "uint64"
        },
        {
          "internalType": "address",
          "name": "callerAddr",
          "type": "address"
        },
        {
          "internalType": "bytes32",
          "name": "querySchema",
          "type": "bytes32"
        },
        {
          "internalType": "bytes32",
          "name": "queryHash",
          "type": "bytes32"
        },
        {
          "internalType": "bytes32[]",
          "name": "axiomResults",
          "type": "bytes32[]"
        },
        {
          "internalType": "bytes",
          "name": "callbackExtraData",
          "type": "bytes"
        }
      ],
      "name": "axiomV2Callback",
      "outputs": [],
      "stateMutability": "nonpayable",
      "type": "function"
    },
    {
      "inputs": [],
      "name": "axiomV2QueryAddress",
      "outputs": [
        {
          "internalType": "address",
          "name": "",
          "type": "address"
        }
      ],
      "stateMutability": "view",
      "type": "function"
    },
    {
      "inputs": [
        {
          "internalType": "address",
          "name": "senderAddress",
          "type": "address"
        },
        {
          "internalType": "uint256",
          "name": "blockNumber",
          "type": "uint256"
        }
      ],
      "name": "checkBundleIndex",
      "outputs": [
        {
          "internalType": "uint256",
          "name": "bundleIndex",
          "type": "uint256"
        }
      ],
      "stateMutability": "view",
      "type": "function"
    },
    {
      "inputs": [
        {
          "internalType": "address",
          "name": "senderAddress",
          "type": "address"
        },
        {
          "internalType": "uint256",
          "name": "blockNumber",
          "type": "uint256"
        }
      ],
      "name": "checkBundleSize",
      "outputs": [
        {
          "internalType": "uint256",
          "name": "bundleSize",
          "type": "uint256"
        }
      ],
      "stateMutability": "view",
      "type": "function"
    },
    {
      "inputs": [
        {
          "internalType": "address",
          "name": "senderAddress",
          "type": "address"
        },
        {
          "internalType": "uint256",
          "name": "blockNumber",
          "type": "uint256"
        }
      ],
      "name": "checkBundleVerifier",
      "outputs": [
        {
          "internalType": "address",
          "name": "bundleVerifier",
          "type": "address"
        }
      ],
      "stateMutability": "view",
      "type": "function"
    },
    {
      "inputs": [
        {
          "internalType": "address",
          "name": "blockBuilderAddress",
          "type": "address"
        }
      ],
      "name": "checkStake",
      "outputs": [
        {
          "internalType": "uint256",
          "name": "stakeAmount",
          "type": "uint256"
        }
      ],
      "stateMutability": "view",
      "type": "function"
    },
    {
      "inputs": [],
      "name": "deployer",
      "outputs": [
        {
          "internalType": "address",
          "name": "",
          "type": "address"
        }
      ],
      "stateMutability": "view",
      "type": "function"
    },
    {
      "inputs": [],
      "name": "stake",
      "outputs": [],
      "stateMutability": "payable",
      "type": "function"
    },
    {
      "inputs": [
        {
          "internalType": "uint256",
          "name": "bundleSize",
          "type": "uint256"
        },
        {
          "internalType": "uint256",
          "name": "blockNumber",
          "type": "uint256"
        },
        {
          "internalType": "uint256",
          "name": "bundleIndex",
          "type": "uint256"
        }
      ],
      "name": "stampBundle",
      "outputs": [],
      "stateMutability": "nonpayable",
      "type": "function"
    },
    {
      "inputs": [
        {
          "internalType": "uint256",
          "name": "bundleSize",
          "type": "uint256"
        },
        {
          "internalType": "address",
          "name": "sender",
          "type": "address"
        },
        {
          "internalType": "uint256",
          "name": "blockNumber",
          "type": "uint256"
        },
        {
          "internalType": "uint256",
          "name": "bundleIndex",
          "type": "uint256"
        }
      ],
      "name": "verifyBundle",
      "outputs": [],
      "stateMutability": "nonpayable",
      "type": "function"
    }
  ],
  "bytecode": {
    "object": "0x60a060405234801561001057600080fd5b50604051610d4f380380610d4f83398101604081905261002f91610076565b6001600160a01b03908116608052600580546001600160a01b031916929091169190911790556100a9565b80516001600160a01b038116811461007157600080fd5b919050565b6000806040838503121561008957600080fd5b6100928361005a565b91506100a06020840161005a565b90509250929050565b608051610c846100cb60003960008181610106015261035c0152610c846000f3fe60806040526004361061009c5760003560e01c80635a7da355116100645780635a7da3551461018a57806371f6ad9e146101cc57806390d96d761461020f578063d11f6b0e14610245578063d5f3948814610265578063e4e75d9f1461028357600080fd5b806310bcea0b146100a15780632a75d3be146100f45780633a4b66f1146101405780633e8a42081461014a57806351b17b291461016a575b600080fd5b3480156100ad57600080fd5b506100e16100bc3660046109c7565b6001600160a01b03909116600090815260208181526040808320938352929052205490565b6040519081526020015b60405180910390f35b34801561010057600080fd5b506101287f000000000000000000000000000000000000000000000000000000000000000081565b6040516001600160a01b0390911681526020016100eb565b6101486102a3565b005b34801561015657600080fd5b506101486101653660046109f1565b610300565b34801561017657600080fd5b50610148610185366004610a5c565b610351565b34801561019657600080fd5b506100e16101a53660046109c7565b6001600160a01b039091166000908152600160209081526040808320938352929052205490565b3480156101d857600080fd5b506101286101e73660046109c7565b6001600160a01b03918216600090815260046020908152604080832093835292905220541690565b34801561021b57600080fd5b506100e161022a3660046109f1565b6001600160a01b031660009081526003602052604090205490565b34801561025157600080fd5b50610148610260366004610b3b565b610449565b34801561027157600080fd5b506005546001600160a01b0316610128565b34801561028f57600080fd5b5061014861029e366004610b67565b610579565b3360009081526002602052604090205460ff166102da576040516370152e8d60e01b81523360048201526024015b60405180910390fd5b33600090815260036020526040812080543492906102f9908490610bb8565b9091555050565b6005546001600160a01b0316331461032d5760405163db18f5cd60e01b81523360048201526024016102d1565b6001600160a01b03166000908152600260205260409020805460ff19166001179055565b336001600160a01b037f000000000000000000000000000000000000000000000000000000000000000016146103e35760405162461bcd60e51b815260206004820152603160248201527f4178696f6d5632436c69656e743a2063616c6c6572206d757374206265206178604482015270696f6d563251756572794164647265737360781b60648201526084016102d1565b6040516001600160a01b03881681528590879067ffffffffffffffff8b16907f8c4d7c8c39bd8567a2e06cd74f2e95db120e4aeeb5092fca49fb9f3ea13f0fc19060200160405180910390a461043f88888888888888886106b9565b5050505050505050565b8015806104565750600181115b6104ae5760405162461bcd60e51b8152602060048201526024808201527f62756e646c6520696e6465782068617320746f206265206c6172676572207468604482015263616e203160e01b60648201526084016102d1565b33600081815260208181526040808320868452825280832087905592825260048152828220858352905220546001600160a01b031661051057604051635a815d0160e01b815233600482015260248101829052604481018490526064016102d1565b80156105745733600090815260016020908152604080832085845290915290205481146105745760405162461bcd60e51b81526020600482015260126024820152710eee4dedcce40c4eadcc8d8ca40d2dcc8caf60731b60448201526064016102d1565b505050565b3360009081526002602052604090205460ff166105ab576040516370152e8d60e01b81523360048201526024016102d1565b4382146106115760405162461bcd60e51b815260206004820152602e60248201527f626c6f636b4e756d6265722068617320746f206265207468652063757272656e60448201526d3a10313637b1b590373ab6b132b960911b60648201526084016102d1565b6000811161066d5760405162461bcd60e51b8152602060048201526024808201527f62756e646c6520696e6465782068617320746f206265206c61726765722074686044820152630616e20360e41b60648201526084016102d1565b6001600160a01b039092166000818152600160209081526040808320858452825280832095909555918152600482528381209281529190522080546001600160a01b0319163317905550565b60006001858560008181106106d0576106d0610bd1565b9050602002013560001c6106e49190610be7565b905060006001868660018181106106fd576106fd610bd1565b9050602002013560001c6107119190610be7565b905060008686600281811061072857610728610bd1565b9050602002013560001c905060008787600381811061074957610749610bd1565b602090810292909201356001600160a01b0381811660008181526004865260408082208983528752808220549282528187528082208983529096529485205492955016920390506107ac5760405162461bcd60e51b81526004016102d190610bfa565b6001600160a01b038216600090815260016020908152604080832086845290915281205490036107ee5760405162461bcd60e51b81526004016102d190610bfa565b6001600160a01b0382166000908152602081815260408083208684529091529020548514158061084157506001600160a01b03821660009081526001602090815260408083208684529091529020548414155b15610970576001600160a01b03818116600090815260036020526040808220805490839055905190928f169083908381818185875af1925050503d80600081146108a7576040519150601f19603f3d011682016040523d82523d6000602084013e6108ac565b606091505b50509050806109105760405162461bcd60e51b815260206004820152602a60248201527f50726f6f664f66496e746567726974793a206661696c656420746f207472616e604482015269736665722066756e647360b01b60648201526084016102d1565b7f149f828ef3f9255f7f08dff0308a6001e3fd58d2a3c239b674f66f76ca854c4f8e8385604051610961939291906001600160a01b0393841681526020810192909252909116604082015260600190565b60405180910390a1505061099c565b604051635bac800f60e01b81526001600160a01b03808e166004830152821660248201526044016102d1565b50505050505050505050505050565b80356001600160a01b03811681146109c257600080fd5b919050565b600080604083850312156109da57600080fd5b6109e3836109ab565b946020939093013593505050565b600060208284031215610a0357600080fd5b610a0c826109ab565b9392505050565b60008083601f840112610a2557600080fd5b50813567ffffffffffffffff811115610a3d57600080fd5b602083019150836020828501011115610a5557600080fd5b9250929050565b60008060008060008060008060c0898b031215610a7857600080fd5b883567ffffffffffffffff8082168214610a9157600080fd5b819950610aa060208c016109ab565b985060408b0135975060608b0135965060808b0135915080821115610ac457600080fd5b818b0191508b601f830112610ad857600080fd5b813581811115610ae757600080fd5b8c60208260051b8501011115610afc57600080fd5b6020830196508095505060a08b0135915080821115610b1a57600080fd5b50610b278b828c01610a13565b999c989b5096995094979396929594505050565b600080600060608486031215610b5057600080fd5b505081359360208301359350604090920135919050565b60008060008060808587031215610b7d57600080fd5b84359350610b8d602086016109ab565b93969395505050506040820135916060013590565b634e487b7160e01b600052601160045260246000fd5b80820180821115610bcb57610bcb610ba2565b92915050565b634e487b7160e01b600052603260045260246000fd5b81810381811115610bcb57610bcb610ba2565b60208082526034908201527f50726f6f664f66496e746567726974793a2077726f6e672073656e6465724164604082015273323932b9b99037b910313637b1b5a73ab6b132b960611b60608201526080019056fea2646970667358221220bdb0e995f3b940ae033d461cd59a9ca5b35c869f5b6c5d2cbddbf4ea93f399a264736f6c63430008130033",
    "linkReferences": {}
  },
  "methodIdentifiers": {
    "addBlockBuilder(address)": "3e8a4208",
    "axiomV2Callback(uint64,address,bytes32,bytes32,bytes32[],bytes)": "51b17b29",
    "axiomV2QueryAddress()": "2a75d3be",
    "checkBundleIndex(address,uint256)": "5a7da355",
    "checkBundleSize(address,uint256)": "10bcea0b",
    "checkBundleVerifier(address,uint256)": "71f6ad9e",
    "checkStake(address)": "90d96d76",
    "deployer()": "d5f39488",
    "stake()": "3a4b66f1",
    "stampBundle(uint256,uint256,uint256)": "d11f6b0e",
    "verifyBundle(uint256,address,uint256,uint256)": "e4e75d9f"
  },
  "id": 19
}